{
  "contractName": "Arbitrage",
  "abi": [
    {
      "inputs": [
        {
          "internalType": "address",
          "name": "_factory",
          "type": "address"
        },
        {
          "internalType": "address",
          "name": "_sushiRouter",
          "type": "address"
        }
      ],
      "stateMutability": "nonpayable",
      "type": "constructor"
    },
    {
      "anonymous": false,
      "inputs": [
        {
          "indexed": false,
          "internalType": "address",
          "name": "addr",
          "type": "address"
        },
        {
          "indexed": false,
          "internalType": "uint256",
          "name": "payback",
          "type": "uint256"
        }
      ],
      "name": "testObject",
      "type": "event"
    },
    {
      "inputs": [],
      "name": "factory",
      "outputs": [
        {
          "internalType": "address",
          "name": "",
          "type": "address"
        }
      ],
      "stateMutability": "view",
      "type": "function",
      "constant": true
    },
    {
      "inputs": [],
      "name": "sushiRouter",
      "outputs": [
        {
          "internalType": "contract IUniswapV2Router02",
          "name": "",
          "type": "address"
        }
      ],
      "stateMutability": "view",
      "type": "function",
      "constant": true
    },
    {
      "inputs": [
        {
          "internalType": "address",
          "name": "token0",
          "type": "address"
        },
        {
          "internalType": "address",
          "name": "token1",
          "type": "address"
        },
        {
          "internalType": "uint256",
          "name": "amount0",
          "type": "uint256"
        },
        {
          "internalType": "uint256",
          "name": "amount1",
          "type": "uint256"
        }
      ],
      "name": "startArbitrage",
      "outputs": [],
      "stateMutability": "nonpayable",
      "type": "function"
    },
    {
      "inputs": [
        {
          "internalType": "address",
          "name": "_sender",
          "type": "address"
        },
        {
          "internalType": "uint256",
          "name": "_amount0",
          "type": "uint256"
        },
        {
          "internalType": "uint256",
          "name": "_amount1",
          "type": "uint256"
        },
        {
          "internalType": "bytes",
          "name": "_data",
          "type": "bytes"
        }
      ],
      "name": "uniswapV2Call",
      "outputs": [],
      "stateMutability": "nonpayable",
      "type": "function"
    }
  ],
  "bytecode": "0x6080604052426b204fce5e3e250261100000000160015534801561002257600080fd5b506040516109183803806109188339818101604052604081101561004557600080fd5b508051602090910151600080546001600160a01b039384166001600160a01b0319918216179091556002805493909216921691909117905561088c8061008c6000396000f3fe608060405234801561001057600080fd5b506004361061004c5760003560e01c806310d1e85c146100515780636d13582c146100df57806376e9d06614610103578063c45a01551461013f575b600080fd5b6100dd6004803603608081101561006757600080fd5b6001600160a01b03823516916020810135916040820135919081019060808101606082013564010000000081111561009e57600080fd5b8201836020820111156100b057600080fd5b803590602001918460018302840111640100000000831117156100d257600080fd5b509092509050610147565b005b6100e7610494565b604080516001600160a01b039092168252519081900360200190f35b6100dd6004803603608081101561011957600080fd5b506001600160a01b038135811691602081013590911690604081013590606001356104a3565b6100e7610684565b6040805160028082526060808301845292602083019080368337019050509050600085156101755785610177565b845b90506000336001600160a01b0316630dfe16816040518163ffffffff1660e01b815260040160206040518083038186803b1580156101b457600080fd5b505afa1580156101c8573d6000803e3d6000fd5b505050506040513d60208110156101de57600080fd5b50516040805163d21220a760e01b81529051919250600091339163d21220a7916004808301926020929190829003018186803b15801561021d57600080fd5b505afa158015610231573d6000803e3d6000fd5b505050506040513d602081101561024757600080fd5b5051600054909150610263906001600160a01b03168383610693565b6001600160a01b0316336001600160a01b0316146102b7576040805162461bcd60e51b815260206004820152600c60248201526b155b985d5d1a1bdc9a5e995960a21b604482015290519081900360640190fd5b8715806102c2575086155b6102cb57600080fd5b87156102d757816102d9565b805b846000815181106102e657fe5b6001600160a01b0390921660209283029190910190910152871561030a578061030c565b815b8460018151811061031957fe5b6001600160a01b03909216602092830291909101909101526000881561033f5782610341565b815b6002546040805163095ea7b360e01b81526001600160a01b0392831660048201526024810188905290519293509083169163095ea7b3916044808201926020929091908290030181600087803b15801561039a57600080fd5b505af11580156103ae573d6000803e3d6000fd5b505050506040513d60208110156103c457600080fd5b50506040805163a9059cbb60e01b8152336004820152620186a0620187cd8702046024820181905291516001600160a01b0384169163a9059cbb9160448083019260209291908290030181600087803b15801561042057600080fd5b505af1158015610434573d6000803e3d6000fd5b505050506040513d602081101561044a57600080fd5b5050604080513381526020810183905281517f94efe9e3a607a4e30f0648e6ce6914ff92832ee52251536f2eda54df8a7d320b929181900390910190a15050505050505050505050565b6002546001600160a01b031681565b600080546040805163e6a4390560e01b81526001600160a01b03888116600483015287811660248301529151919092169163e6a43905916044808301926020929190829003018186803b1580156104f957600080fd5b505afa15801561050d573d6000803e3d6000fd5b505050506040513d602081101561052357600080fd5b505190506001600160a01b038116610582576040805162461bcd60e51b815260206004820152601860248201527f5468697320706f6f6c20646f6573206e6f742065786973740000000000000000604482015290519081900360640190fd5b60408051808201825260098152686e6f7420656d70747960b81b60208201908152915163022c0d9f60e01b8152600481018681526024820186905230604483018190526080606484019081528451608485015284516001600160a01b0388169663022c0d9f968b968b9691949193919260a49091019180838360005b838110156106165781810151838201526020016105fe565b50505050905090810190601f1680156106435780820380516001836020036101000a031916815260200191505b5095505050505050600060405180830381600087803b15801561066557600080fd5b505af1158015610679573d6000803e3d6000fd5b505050505050505050565b6000546001600160a01b031681565b60008060006106a28585610753565b604080516bffffffffffffffffffffffff19606094851b811660208084019190915293851b81166034830152825160288184030181526048830184528051908501206001600160f81b031960688401529a90941b9093166069840152607d8301989098527f96e8ac4277198ff8b6f785478aa9a39f403cb768dd02cbee326c3e7da348845f609d808401919091528851808403909101815260bd909201909752805196019590952095945050505050565b600080826001600160a01b0316846001600160a01b031614156107a75760405162461bcd60e51b81526004018080602001828103825260258152602001806108326025913960400191505060405180910390fd5b826001600160a01b0316846001600160a01b0316106107c75782846107ca565b83835b90925090506001600160a01b03821661082a576040805162461bcd60e51b815260206004820152601e60248201527f556e697377617056324c6962726172793a205a45524f5f414444524553530000604482015290519081900360640190fd5b925092905056fe556e697377617056324c6962726172793a204944454e544943414c5f414444524553534553a2646970667358221220026d5c249751b2f75c248a60ce0c9ccb43b5be79ef7058ff3da120ca4e9e99eb64736f6c63430006060033",
  "immutableReferences": {},
  "source": "pragma solidity ^0.6.6;\n\nimport '@uniswap/v2-core/contracts/interfaces/IUniswapV2Callee.sol';\nimport \"@uniswap/v2-periphery/contracts/libraries/UniswapV2Library.sol\";\nimport \"@uniswap/v2-periphery/contracts/interfaces/IUniswapV2Router02.sol\";\nimport \"@uniswap/v2-core/contracts/interfaces/IUniswapV2Factory.sol\";\nimport \"@uniswap/v2-core/contracts/interfaces/IUniswapV2Pair.sol\";\nimport \"@uniswap/v2-core/contracts/interfaces/IERC20.sol\";\n\n\n\ncontract Arbitrage {\n  address public factory;\n  uint deadline = (now + 10000000000000000000000000000);\n  IUniswapV2Router02 public sushiRouter;\n  event testObject(address addr, uint payback);\n\n  constructor(address _factory, address _sushiRouter) public {\n    factory = _factory;  \n    sushiRouter = IUniswapV2Router02(_sushiRouter);\n  }\n\n  function startArbitrage(\n    address token0, \n    address token1, \n    uint amount0, \n    uint amount1\n  ) external {\n    address pairAddress = IUniswapV2Factory(factory).getPair(token0, token1);\n    require(pairAddress != address(0), 'This pool does not exist');\n    IUniswapV2Pair(pairAddress).swap(\n      amount0, \n      amount1, \n      address(this), \n      bytes('not empty')\n    );\n  }\n\n  function uniswapV2Call(\n    address _sender, \n    uint _amount0, \n    uint _amount1, \n    bytes calldata _data\n  ) external {\n    address[] memory path = new address[](2);\n    uint amountToken = _amount0 == 0 ? _amount1 : _amount0;\n    \n    address token0 = IUniswapV2Pair(msg.sender).token0();\n    address token1 = IUniswapV2Pair(msg.sender).token1();\n\n    require(\n      msg.sender == UniswapV2Library.pairFor(factory, token0, token1), \n      'Unauthorized'\n    ); \n    require(_amount0 == 0 || _amount1 == 0);\n\n    path[0] = _amount0 == 0 ? token1 : token0;\n    path[1] = _amount0 == 0 ? token0 : token1;\n\n    IERC20 token = IERC20(_amount0 == 0 ? token1 : token0);\n    \n    token.approve(address(sushiRouter), amountToken);\n\n    // uint amountRequired = UniswapV2Library.getAmountsIn(\n    //   factory, \n    //   amountToken, \n    //   path\n    // )[0];\n    // uint amountReceived = sushiRouter.swapExactTokensForTokens(\n    //   amountToken, \n    //   amountRequired, \n    //   path, \n    //   msg.sender, \n    //   deadline\n    // )[1];\n\n    // IERC20 otherToken = IERC20(_amount0 == 0 ? token0 : token1);\n    // otherToken.transfer(msg.sender, amountRequired);\n    // otherToken.transfer(tx.origin, amountReceived - amountRequired);\n\n\n    // The fee for flashSwap is .003 / .997 ≈ 0.3009027% (https://uniswap.org/docs/v2/smart-contract-integration/using-flash-swaps/)\n    uint payback = amountToken*100301/100000;\n\n    token.transfer(msg.sender, payback);\n    emit testObject(msg.sender, payback);\n\n  }\n}",
  "sourcePath": "/Users/macbookpro4eric/Projects/blockchain/project6_flashloan/contracts/Arbitrage.sol",
  "compiler": {
    "name": "solc",
    "version": "0.6.6+commit.6c089d02.Emscripten.clang"
  },
  "schemaVersion": "3.3.4",
  "updatedAt": "2021-04-17T15:39:35.234Z",
  "networkType": "ethereum",
  "devdoc": {
    "methods": {}
  },
  "userdoc": {
    "methods": {}
  }
}